{
  "contractName": "FundraiserFactory",
  "abi": [
    {
      "anonymous": false,
      "inputs": [
        {
          "indexed": true,
          "internalType": "contract Fundraiser",
          "name": "fundraiser",
          "type": "address"
        },
        {
          "indexed": true,
          "internalType": "address",
          "name": "owner",
          "type": "address"
        }
      ],
      "name": "FundraiserCreated",
      "type": "event"
    },
    {
      "inputs": [
        {
          "internalType": "string",
          "name": "name",
          "type": "string"
        },
        {
          "internalType": "string",
          "name": "url",
          "type": "string"
        },
        {
          "internalType": "string",
          "name": "imageURL",
          "type": "string"
        },
        {
          "internalType": "string",
          "name": "description",
          "type": "string"
        },
        {
          "internalType": "address payable",
          "name": "beneficiary",
          "type": "address"
        }
      ],
      "name": "createFundraiser",
      "outputs": [],
      "stateMutability": "nonpayable",
      "type": "function"
    },
    {
      "inputs": [],
      "name": "fundraisersCount",
      "outputs": [
        {
          "internalType": "uint256",
          "name": "",
          "type": "uint256"
        }
      ],
      "stateMutability": "view",
      "type": "function",
      "constant": true
    },
    {
      "inputs": [
        {
          "internalType": "uint256",
          "name": "limit",
          "type": "uint256"
        },
        {
          "internalType": "uint256",
          "name": "offset",
          "type": "uint256"
        }
      ],
      "name": "fundraisers",
      "outputs": [
        {
          "internalType": "contract Fundraiser[]",
          "name": "coll",
          "type": "address[]"
        }
      ],
      "stateMutability": "view",
      "type": "function",
      "constant": true
    }
  ],
  "bytecode": "0x608060405234801561001057600080fd5b50612864806100206000396000f3fe60806040523480156200001157600080fd5b5060043610620000465760003560e01c806311d752ad146200004b578063704914f8146200006b5780639d3b435514620000a1575b600080fd5b620000696004803603810190620000639190620004a1565b620000c3565b005b62000089600480360381019062000083919062000587565b620001cf565b604051620000989190620006f8565b60405180910390f35b620000ab620003e7565b604051620000ba9190620007c7565b60405180910390f35b6000858585858533604051620000d990620003f3565b620000ea969594939291906200071c565b604051809103906000f08015801562000107573d6000803e3d6000fd5b5090506000819080600181540180825580915050600190039060005260206000200160009091909190916101000a81548173ffffffffffffffffffffffffffffffffffffffff021916908373ffffffffffffffffffffffffffffffffffffffff1602179055503373ffffffffffffffffffffffffffffffffffffffff168173ffffffffffffffffffffffffffffffffffffffff167fa2398daac0c8053a1e3c0280916c2ec6bc884f0959c27e639a4db829b7eabfb160405160405180910390a3505050505050565b6060620001db620003e7565b82111562000220576040517f08c379a00000000000000000000000000000000000000000000000000000000081526004016200021790620007a5565b60405180910390fd5b6000826200022d620003e7565b620002399190620008f5565b90508381106200024a57836200024c565b805b9050601481106200025f57601462000261565b805b90508067ffffffffffffffff811115620002a4577f4e487b7100000000000000000000000000000000000000000000000000000000600052604160045260246000fd5b604051908082528060200260200182016040528015620002d35781602001602082028036833780820191505090505b50915060005b81811015620003df5760008185620002f2919062000898565b815481106200032a577f4e487b7100000000000000000000000000000000000000000000000000000000600052603260045260246000fd5b9060005260206000200160009054906101000a900473ffffffffffffffffffffffffffffffffffffffff168382815181106200038f577f4e487b7100000000000000000000000000000000000000000000000000000000600052603260045260246000fd5b602002602001019073ffffffffffffffffffffffffffffffffffffffff16908173ffffffffffffffffffffffffffffffffffffffff16815250508080620003d69062000a25565b915050620002d9565b505092915050565b60008080549050905090565b611cef8062000b4083390190565b60006200041862000412846200080d565b620007e4565b9050828152602081018484840111156200043157600080fd5b6200043e848285620009aa565b509392505050565b600081359050620004578162000b0b565b92915050565b600082601f8301126200046f57600080fd5b81356200048184826020860162000401565b91505092915050565b6000813590506200049b8162000b25565b92915050565b600080600080600060a08688031215620004ba57600080fd5b600086013567ffffffffffffffff811115620004d557600080fd5b620004e3888289016200045d565b955050602086013567ffffffffffffffff8111156200050157600080fd5b6200050f888289016200045d565b945050604086013567ffffffffffffffff8111156200052d57600080fd5b6200053b888289016200045d565b935050606086013567ffffffffffffffff8111156200055957600080fd5b62000567888289016200045d565b92505060806200057a8882890162000446565b9150509295509295909350565b600080604083850312156200059b57600080fd5b6000620005ab858286016200048a565b9250506020620005be858286016200048a565b9150509250929050565b6000620005d683836200066e565b60208301905092915050565b620005ed8162000944565b82525050565b620005fe8162000930565b82525050565b6000620006118262000853565b6200061d818562000876565b93506200062a8362000843565b8060005b8381101562000661578151620006458882620005c8565b9750620006528362000869565b9250506001810190506200062e565b5085935050505092915050565b620006798162000982565b82525050565b60006200068c826200085e565b62000698818562000887565b9350620006aa818560208601620009b9565b620006b58162000ad1565b840191505092915050565b6000620006cf60148362000887565b9150620006dc8262000ae2565b602082019050919050565b620006f28162000978565b82525050565b6000602082019050818103600083015262000714818462000604565b905092915050565b600060c08201905081810360008301526200073881896200067f565b905081810360208301526200074e81886200067f565b905081810360408301526200076481876200067f565b905081810360608301526200077a81866200067f565b90506200078b6080830185620005e2565b6200079a60a0830184620005f3565b979650505050505050565b60006020820190508181036000830152620007c081620006c0565b9050919050565b6000602082019050620007de6000830184620006e7565b92915050565b6000620007f062000803565b9050620007fe8282620009ef565b919050565b6000604051905090565b600067ffffffffffffffff8211156200082b576200082a62000aa2565b5b620008368262000ad1565b9050602081019050919050565b6000819050602082019050919050565b600081519050919050565b600081519050919050565b6000602082019050919050565b600082825260208201905092915050565b600082825260208201905092915050565b6000620008a58262000978565b9150620008b28362000978565b9250827fffffffffffffffffffffffffffffffffffffffffffffffffffffffffffffffff03821115620008ea57620008e962000a73565b5b828201905092915050565b6000620009028262000978565b91506200090f8362000978565b92508282101562000925576200092462000a73565b5b828203905092915050565b60006200093d8262000958565b9050919050565b6000620009518262000958565b9050919050565b600073ffffffffffffffffffffffffffffffffffffffff82169050919050565b6000819050919050565b60006200098f8262000996565b9050919050565b6000620009a38262000958565b9050919050565b82818337600083830152505050565b60005b83811015620009d9578082015181840152602081019050620009bc565b83811115620009e9576000848401525b50505050565b620009fa8262000ad1565b810181811067ffffffffffffffff8211171562000a1c5762000a1b62000aa2565b5b80604052505050565b600062000a328262000978565b91507fffffffffffffffffffffffffffffffffffffffffffffffffffffffffffffffff82141562000a685762000a6762000a73565b5b600182019050919050565b7f4e487b7100000000000000000000000000000000000000000000000000000000600052601160045260246000fd5b7f4e487b7100000000000000000000000000000000000000000000000000000000600052604160045260246000fd5b6000601f19601f8301169050919050565b7f6f6666736574206f7574206f6620626f756e6473000000000000000000000000600082015250565b62000b168162000944565b811462000b2257600080fd5b50565b62000b308162000978565b811462000b3c57600080fd5b5056fe60806040523480156200001157600080fd5b5060405162001cef38038062001cef8339818101604052810190620000379190620004e9565b600062000049620001a960201b60201c565b9050806000806101000a81548173ffffffffffffffffffffffffffffffffffffffff021916908373ffffffffffffffffffffffffffffffffffffffff1602179055508073ffffffffffffffffffffffffffffffffffffffff16600073ffffffffffffffffffffffffffffffffffffffff167f8be0079c531659141344cd1fd0a4f28419497f9722a3daafe3b4186f6b6457e060405160405180910390a3508560049080519060200190620000ff92919062000399565b5084600590805190602001906200011892919062000399565b5083600690805190602001906200013192919062000399565b5082600790805190602001906200014a92919062000399565b5081600860006101000a81548173ffffffffffffffffffffffffffffffffffffffff021916908373ffffffffffffffffffffffffffffffffffffffff1602179055506200019d81620001b160201b60201c565b505050505050620008ea565b600033905090565b620001c1620001a960201b60201c565b73ffffffffffffffffffffffffffffffffffffffff16620001e76200037060201b60201c565b73ffffffffffffffffffffffffffffffffffffffff161462000240576040517f08c379a0000000000000000000000000000000000000000000000000000000008152600401620002379062000653565b60405180910390fd5b600073ffffffffffffffffffffffffffffffffffffffff168173ffffffffffffffffffffffffffffffffffffffff161415620002b3576040517f08c379a0000000000000000000000000000000000000000000000000000000008152600401620002aa9062000631565b60405180910390fd5b8073ffffffffffffffffffffffffffffffffffffffff1660008054906101000a900473ffffffffffffffffffffffffffffffffffffffff1673ffffffffffffffffffffffffffffffffffffffff167f8be0079c531659141344cd1fd0a4f28419497f9722a3daafe3b4186f6b6457e060405160405180910390a3806000806101000a81548173ffffffffffffffffffffffffffffffffffffffff021916908373ffffffffffffffffffffffffffffffffffffffff16021790555050565b60008060009054906101000a900473ffffffffffffffffffffffffffffffffffffffff16905090565b828054620003a79062000763565b90600052602060002090601f016020900481019282620003cb576000855562000417565b82601f10620003e657805160ff191683800117855562000417565b8280016001018555821562000417579182015b8281111562000416578251825591602001919060010190620003f9565b5b5090506200042691906200042a565b5090565b5b80821115620004455760008160009055506001016200042b565b5090565b6000620004606200045a846200069e565b62000675565b9050828152602081018484840111156200047957600080fd5b620004868482856200072d565b509392505050565b6000815190506200049f81620008b6565b92915050565b600081519050620004b681620008d0565b92915050565b600082601f830112620004ce57600080fd5b8151620004e084826020860162000449565b91505092915050565b60008060008060008060c087890312156200050357600080fd5b600087015167ffffffffffffffff8111156200051e57600080fd5b6200052c89828a01620004bc565b965050602087015167ffffffffffffffff8111156200054a57600080fd5b6200055889828a01620004bc565b955050604087015167ffffffffffffffff8111156200057657600080fd5b6200058489828a01620004bc565b945050606087015167ffffffffffffffff811115620005a257600080fd5b620005b089828a01620004bc565b9350506080620005c389828a01620004a5565b92505060a0620005d689828a016200048e565b9150509295509295509295565b6000620005f2602683620006d4565b9150620005ff826200083e565b604082019050919050565b600062000619602083620006d4565b915062000626826200088d565b602082019050919050565b600060208201905081810360008301526200064c81620005e3565b9050919050565b600060208201905081810360008301526200066e816200060a565b9050919050565b60006200068162000694565b90506200068f828262000799565b919050565b6000604051905090565b600067ffffffffffffffff821115620006bc57620006bb620007fe565b5b620006c7826200082d565b9050602081019050919050565b600082825260208201905092915050565b6000620006f2826200070d565b9050919050565b600062000706826200070d565b9050919050565b600073ffffffffffffffffffffffffffffffffffffffff82169050919050565b60005b838110156200074d57808201518184015260208101905062000730565b838111156200075d576000848401525b50505050565b600060028204905060018216806200077c57607f821691505b60208210811415620007935762000792620007cf565b5b50919050565b620007a4826200082d565b810181811067ffffffffffffffff82111715620007c657620007c5620007fe565b5b80604052505050565b7f4e487b7100000000000000000000000000000000000000000000000000000000600052602260045260246000fd5b7f4e487b7100000000000000000000000000000000000000000000000000000000600052604160045260246000fd5b6000601f19601f8301169050919050565b7f4f776e61626c653a206e6577206f776e657220697320746865207a65726f206160008201527f6464726573730000000000000000000000000000000000000000000000000000602082015250565b7f4f776e61626c653a2063616c6c6572206973206e6f7420746865206f776e6572600082015250565b620008c181620006e5565b8114620008cd57600080fd5b50565b620008db81620006f9565b8114620008e757600080fd5b50565b6113f580620008fa6000396000f3fe6080604052600436106100ec5760003560e01c80635600f04f1161008a578063b90497e011610059578063b90497e0146102d2578063de2ed893146102fd578063ed88c68e14610328578063f2fde38b14610332576100ed565b80635600f04f1461023a578063715018a6146102655780637284e4161461027c5780638da5cb5b146102a7576100ed565b80631c31f710116100c65780631c31f710146101a45780631f522595146101cd57806338af3eed146101f85780633ccfd60b14610223576100ed565b80630180b97c1461012257806306fdde031461014d5780631a57f7b414610178576100ed565b5b6101023460015461035b90919063ffffffff16565b6001819055506002600081548092919061011b90611261565b9190505550005b34801561012e57600080fd5b50610137610371565b60405161014491906110e8565b60405180910390f35b34801561015957600080fd5b506101626103bb565b60405161016f9190611086565b60405180910390f35b34801561018457600080fd5b5061018d610449565b60405161019b92919061104f565b60405180910390f35b3480156101b057600080fd5b506101cb60048036038101906101c69190610ebf565b61067c565b005b3480156101d957600080fd5b506101e261073c565b6040516101ef91906110e8565b60405180910390f35b34801561020457600080fd5b5061020d610742565b60405161021a9190611034565b60405180910390f35b34801561022f57600080fd5b50610238610768565b005b34801561024657600080fd5b5061024f61088c565b60405161025c9190611086565b60405180910390f35b34801561027157600080fd5b5061027a61091a565b005b34801561028857600080fd5b50610291610a54565b60405161029e9190611086565b60405180910390f35b3480156102b357600080fd5b506102bc610ae2565b6040516102c99190611019565b60405180910390f35b3480156102de57600080fd5b506102e7610b0b565b6040516102f49190611086565b60405180910390f35b34801561030957600080fd5b50610312610b99565b60405161031f91906110e8565b60405180910390f35b610330610b9f565b005b34801561033e57600080fd5b5061035960048036038101906103549190610e96565b610cbb565b005b600081836103699190611158565b905092915050565b6000600360003373ffffffffffffffffffffffffffffffffffffffff1673ffffffffffffffffffffffffffffffffffffffff16815260200190815260200160002080549050905090565b600480546103c89061122f565b80601f01602080910402602001604051908101604052809291908181526020018280546103f49061122f565b80156104415780601f1061041657610100808354040283529160200191610441565b820191906000526020600020905b81548152906001019060200180831161042457829003601f168201915b505050505081565b6060806000610456610371565b90508067ffffffffffffffff811115610498577f4e487b7100000000000000000000000000000000000000000000000000000000600052604160045260246000fd5b6040519080825280602002602001820160405280156104c65781602001602082028036833780820191505090505b5092508067ffffffffffffffff811115610509577f4e487b7100000000000000000000000000000000000000000000000000000000600052604160045260246000fd5b6040519080825280602002602001820160405280156105375781602001602082028036833780820191505090505b50915060005b81811015610676576000600360003373ffffffffffffffffffffffffffffffffffffffff1673ffffffffffffffffffffffffffffffffffffffff16815260200190815260200160002082815481106105be577f4e487b7100000000000000000000000000000000000000000000000000000000600052603260045260246000fd5b90600052602060002090600202019050806000015485838151811061060c577f4e487b7100000000000000000000000000000000000000000000000000000000600052603260045260246000fd5b6020026020010181815250508060010154848381518110610656577f4e487b7100000000000000000000000000000000000000000000000000000000600052603260045260246000fd5b60200260200101818152505050808061066e90611261565b91505061053d565b50509091565b610684610e64565b73ffffffffffffffffffffffffffffffffffffffff166106a2610ae2565b73ffffffffffffffffffffffffffffffffffffffff16146106f8576040517f08c379a00000000000000000000000000000000000000000000000000000000081526004016106ef906110c8565b60405180910390fd5b80600860006101000a81548173ffffffffffffffffffffffffffffffffffffffff021916908373ffffffffffffffffffffffffffffffffffffffff16021790555050565b60025481565b600860009054906101000a900473ffffffffffffffffffffffffffffffffffffffff1681565b610770610e64565b73ffffffffffffffffffffffffffffffffffffffff1661078e610ae2565b73ffffffffffffffffffffffffffffffffffffffff16146107e4576040517f08c379a00000000000000000000000000000000000000000000000000000000081526004016107db906110c8565b60405180910390fd5b6000479050600860009054906101000a900473ffffffffffffffffffffffffffffffffffffffff1673ffffffffffffffffffffffffffffffffffffffff166108fc829081150290604051600060405180830381858888f19350505050158015610851573d6000803e3d6000fd5b507f5b6b431d4476a211bb7d41c20d1aab9ae2321deee0d20be3d9fc9b1093fa6e3d8160405161088191906110e8565b60405180910390a150565b600580546108999061122f565b80601f01602080910402602001604051908101604052809291908181526020018280546108c59061122f565b80156109125780601f106108e757610100808354040283529160200191610912565b820191906000526020600020905b8154815290600101906020018083116108f557829003601f168201915b505050505081565b610922610e64565b73ffffffffffffffffffffffffffffffffffffffff16610940610ae2565b73ffffffffffffffffffffffffffffffffffffffff1614610996576040517f08c379a000000000000000000000000000000000000000000000000000000000815260040161098d906110c8565b60405180910390fd5b600073ffffffffffffffffffffffffffffffffffffffff1660008054906101000a900473ffffffffffffffffffffffffffffffffffffffff1673ffffffffffffffffffffffffffffffffffffffff167f8be0079c531659141344cd1fd0a4f28419497f9722a3daafe3b4186f6b6457e060405160405180910390a360008060006101000a81548173ffffffffffffffffffffffffffffffffffffffff021916908373ffffffffffffffffffffffffffffffffffffffff160217905550565b60078054610a619061122f565b80601f0160208091040260200160405190810160405280929190818152602001828054610a8d9061122f565b8015610ada5780601f10610aaf57610100808354040283529160200191610ada565b820191906000526020600020905b815481529060010190602001808311610abd57829003601f168201915b505050505081565b60008060009054906101000a900473ffffffffffffffffffffffffffffffffffffffff16905090565b60068054610b189061122f565b80601f0160208091040260200160405190810160405280929190818152602001828054610b449061122f565b8015610b915780601f10610b6657610100808354040283529160200191610b91565b820191906000526020600020905b815481529060010190602001808311610b7457829003601f168201915b505050505081565b60015481565b60006040518060400160405280348152602001428152509050600360003373ffffffffffffffffffffffffffffffffffffffff1673ffffffffffffffffffffffffffffffffffffffff16815260200190815260200160002081908060018154018082558091505060019003906000526020600020906002020160009091909190915060008201518160000155602082015181600101555050610c4c3460015461035b90919063ffffffff16565b60018190555060026000815480929190610c6590611261565b91905055503373ffffffffffffffffffffffffffffffffffffffff167f264f630d9efa0d07053a31163641d9fcc0adafc9d9e76f1c37c2ce3a558d2c5234604051610cb091906110e8565b60405180910390a250565b610cc3610e64565b73ffffffffffffffffffffffffffffffffffffffff16610ce1610ae2565b73ffffffffffffffffffffffffffffffffffffffff1614610d37576040517f08c379a0000000000000000000000000000000000000000000000000000000008152600401610d2e906110c8565b60405180910390fd5b600073ffffffffffffffffffffffffffffffffffffffff168173ffffffffffffffffffffffffffffffffffffffff161415610da7576040517f08c379a0000000000000000000000000000000000000000000000000000000008152600401610d9e906110a8565b60405180910390fd5b8073ffffffffffffffffffffffffffffffffffffffff1660008054906101000a900473ffffffffffffffffffffffffffffffffffffffff1673ffffffffffffffffffffffffffffffffffffffff167f8be0079c531659141344cd1fd0a4f28419497f9722a3daafe3b4186f6b6457e060405160405180910390a3806000806101000a81548173ffffffffffffffffffffffffffffffffffffffff021916908373ffffffffffffffffffffffffffffffffffffffff16021790555050565b600033905090565b600081359050610e7b81611391565b92915050565b600081359050610e90816113a8565b92915050565b600060208284031215610ea857600080fd5b6000610eb684828501610e6c565b91505092915050565b600060208284031215610ed157600080fd5b6000610edf84828501610e81565b91505092915050565b6000610ef48383610ffb565b60208301905092915050565b610f09816111c0565b82525050565b610f18816111ae565b82525050565b6000610f2982611113565b610f338185611136565b9350610f3e83611103565b8060005b83811015610f6f578151610f568882610ee8565b9750610f6183611129565b925050600181019050610f42565b5085935050505092915050565b6000610f878261111e565b610f918185611147565b9350610fa18185602086016111fc565b610faa81611308565b840191505092915050565b6000610fc2602683611147565b9150610fcd82611319565b604082019050919050565b6000610fe5602083611147565b9150610ff082611368565b602082019050919050565b611004816111f2565b82525050565b611013816111f2565b82525050565b600060208201905061102e6000830184610f0f565b92915050565b60006020820190506110496000830184610f00565b92915050565b600060408201905081810360008301526110698185610f1e565b9050818103602083015261107d8184610f1e565b90509392505050565b600060208201905081810360008301526110a08184610f7c565b905092915050565b600060208201905081810360008301526110c181610fb5565b9050919050565b600060208201905081810360008301526110e181610fd8565b9050919050565b60006020820190506110fd600083018461100a565b92915050565b6000819050602082019050919050565b600081519050919050565b600081519050919050565b6000602082019050919050565b600082825260208201905092915050565b600082825260208201905092915050565b6000611163826111f2565b915061116e836111f2565b9250827fffffffffffffffffffffffffffffffffffffffffffffffffffffffffffffffff038211156111a3576111a26112aa565b5b828201905092915050565b60006111b9826111d2565b9050919050565b60006111cb826111d2565b9050919050565b600073ffffffffffffffffffffffffffffffffffffffff82169050919050565b6000819050919050565b60005b8381101561121a5780820151818401526020810190506111ff565b83811115611229576000848401525b50505050565b6000600282049050600182168061124757607f821691505b6020821081141561125b5761125a6112d9565b5b50919050565b600061126c826111f2565b91507fffffffffffffffffffffffffffffffffffffffffffffffffffffffffffffffff82141561129f5761129e6112aa565b5b600182019050919050565b7f4e487b7100000000000000000000000000000000000000000000000000000000600052601160045260246000fd5b7f4e487b7100000000000000000000000000000000000000000000000000000000600052602260045260246000fd5b6000601f19601f8301169050919050565b7f4f776e61626c653a206e6577206f776e657220697320746865207a65726f206160008201527f6464726573730000000000000000000000000000000000000000000000000000602082015250565b7f4f776e61626c653a2063616c6c6572206973206e6f7420746865206f776e6572600082015250565b61139a816111ae565b81146113a557600080fd5b50565b6113b1816111c0565b81146113bc57600080fd5b5056fea2646970667358221220668e1d54889f3c5b9bed2d71d8ab8dbd2d5b741d6e5739b8ed20885ed12f4fb664736f6c63430008040033a26469706673582212201ee5d05ddf8451fe4453c664e24bdc4c3c5e3206e1bf2d0d41f6df35ecd5a6c064736f6c63430008040033",
  "immutableReferences": {},
  "source": "pragma solidity >0.4.23 <0.9.0;\n\nimport \"./Fundraiser.sol\";\n\n\ncontract FundraiserFactory {\n    uint256 constant maxLimit = 20;\n    Fundraiser[] private _fundraisers;\n\n    event FundraiserCreated(Fundraiser indexed fundraiser, address indexed owner);\n\n    function createFundraiser(\n        string memory name,\n        string memory url,\n        string memory imageURL,\n        string memory description,\n        address payable beneficiary\n    )\n        public\n    {\n        Fundraiser fundraiser = new Fundraiser(\n            name,\n            url,\n            imageURL,\n            description,\n            beneficiary,\n            msg.sender\n        );\n        _fundraisers.push(fundraiser);\n        emit FundraiserCreated(fundraiser, msg.sender);\n    }\n\n    function fundraisersCount() public view returns(uint256) {\n        return _fundraisers.length;\n    }\n\n    function fundraisers(uint256 limit, uint256 offset)\n        public\n        view\n        returns(Fundraiser[] memory coll)\n    {\n        require(offset <= fundraisersCount(), \"offset out of bounds\");\n\n        uint256 size = fundraisersCount() - offset;\n        size = size < limit ? size : limit;\n        size = size < maxLimit ? size : maxLimit;\n        coll = new Fundraiser[](size);\n\n        for(uint256 i = 0; i < size; i++) {\n            coll[i] = _fundraisers[offset + i];\n        }\n\n        return coll;\n    }\n}",
  "sourcePath": "/Users/yu/projects/fundraiser/contracts/FundraiserFactory.sol",
  "compiler": {
    "name": "solc",
    "version": "0.8.4+commit.c7e474f2.Emscripten.clang"
  },
  "schemaVersion": "3.4.0",
  "updatedAt": "2021-04-25T08:09:54.830Z",
  "networkType": "ethereum",
  "devdoc": {
    "kind": "dev",
    "methods": {},
    "version": 1
  },
  "userdoc": {
    "kind": "user",
    "methods": {},
    "version": 1
  }
}